:060000000A128A1100291A
:10000800F000030EF1000B1812210B191A21710EC2
:080018008300F00E700E0900D8
:1002000044212C213C2133212321A101A2010313EC
:1002100083122108002287002208002288007B2107
:100220007421092903138312061C850A861C850381
:100230000B1008006E21A00A2008323C031D0800A4
:10024000A10AA00108000313831681128111011570
:10025000811401106E210800031383160F140F126E
:100260008F160F1708000313831616149614031322
:10027000831206080B100800031383128B178B15CB
:100280000B108B160B1108000317831688018901C8
:10029000031383160614861406118611061286129D
:1002A0000613861305108510051185110710871098
:1002B00007118711071287120713081088100811F9
:1002C000881108128812081381131514951403134A
:1002D00083128501860187018801080003138312B8
:1002E000643081000B1108002208063C031D080041
:1002F000A101A201080021080A3C031D0800A20A6E
:04030000A10108004F
:100400008A018A140F3982073F3406345B344F3433
:1004100066346D347D3407347F346F3477347C3404
:0804200039345E347934713483
:04400E00D420FF3F7C
:00000001FF
